:020000040800F2
:100000006006002049010008510100085301000862
:1000100000000000000000000000000000000000E0
:100020000000000000000000000000005501000872
:1000300000000000000000005701000859010008FE
:100040005B0100085B0100085B0100085B01000820
:100050005B0100085B0100085B0100085B01000810
:100060005B0100085B0100085B0100085B01000800
:100070005B0100085B0100085B0100085B010008F0
:100080005B0100085B0100085B0100085B010008E0
:100090005B0100085B0100085B0100085B010008D0
:1000A0005B0100085B0100085B0100085B010008C0
:1000B0005B0100085B0100085B0100085B010008B0
:1000C00000F002F800F030F80CA030C8083824180E
:1000D0002D18A246671EAB4654465D46AC4201D180
:1000E00000F022F87E460F3E0FCCB6460126334282
:1000F00000D0FB1AA246AB463343184788010000E4
:10010000980100000023002400250026103A01D3A6
:1001100078C1FBD8520700D330C100D50B607047BF
:100120001FB51FBD10B510BD00F02DF81146FFF72B
:10013000F7FF00F089F800F045F803B4FFF7F2FF8D
:1001400003BC00F04BF80000074880470748004711
:10015000FEE7FEE7FEE7FEE7FEE7FEE704480549A7
:10016000054A064B70470000ED010008C100000879
:100170006000002060060020600200206002002075
:10018000704770477047754600F024F8AE4605008A
:1001900069465346C008C000854618B020B5FFF731
:1001A000DDFF60BC00274908B6460026C0C5C0C5B3
:1001B000C0C5C0C5C0C5C0C5C0C5C0C5403D49005B
:1001C0008D46704710B50446C046C0462046FFF72E
:1001D000B4FF10BD004870470000002001491820FE
:1001E000ABBEFEE72600020070470000124801681F
:1001F0000122114301604168104A114041600168C9
:100200000F4A11400160016801229204914301608C
:1002100041683F22120491434160C16A0909090102
:10022000C162016B074A11400163416B49084900F3
:100230004163002181607047001002400CB8FF0844
:10024000FFFFF6FE2CFEFCFF0B48416901229204E1
:100250001143416109490868921210430860084837
:10026000102202E04B6953404B610346401E80B2AE
:10027000002BF7D1FEE70000001002400004004808
:100280001027000094020008000000206006000013
:04029000040100085D
:0400000508000149A5
:00000001FF
